{
  "contractName": "Claims",
  "abi": [
    {
      "constant": false,
      "inputs": [
        {
          "name": "_new",
          "type": "address"
        }
      ],
      "name": "setOwner",
      "outputs": [],
      "payable": false,
      "stateMutability": "nonpayable",
      "type": "function"
    },
    {
      "constant": true,
      "inputs": [],
      "name": "allocationIndicator",
      "outputs": [
        {
          "name": "",
          "type": "address"
        }
      ],
      "payable": false,
      "stateMutability": "view",
      "type": "function"
    },
    {
      "constant": true,
      "inputs": [],
      "name": "owner",
      "outputs": [
        {
          "name": "",
          "type": "address"
        }
      ],
      "payable": false,
      "stateMutability": "view",
      "type": "function"
    },
    {
      "constant": true,
      "inputs": [
        {
          "name": "",
          "type": "address"
        }
      ],
      "name": "claims",
      "outputs": [
        {
          "name": "hasIndex",
          "type": "bool"
        },
        {
          "name": "index",
          "type": "uint256"
        },
        {
          "name": "polkadot",
          "type": "bytes32"
        },
        {
          "name": "vested",
          "type": "bool"
        }
      ],
      "payable": false,
      "stateMutability": "view",
      "type": "function"
    },
    {
      "constant": true,
      "inputs": [
        {
          "name": "",
          "type": "uint256"
        }
      ],
      "name": "claimed",
      "outputs": [
        {
          "name": "",
          "type": "address"
        }
      ],
      "payable": false,
      "stateMutability": "view",
      "type": "function"
    },
    {
      "constant": true,
      "inputs": [
        {
          "name": "",
          "type": "address"
        }
      ],
      "name": "amended",
      "outputs": [
        {
          "name": "",
          "type": "address"
        }
      ],
      "payable": false,
      "stateMutability": "view",
      "type": "function"
    },
    {
      "constant": true,
      "inputs": [],
      "name": "nextIndex",
      "outputs": [
        {
          "name": "",
          "type": "uint256"
        }
      ],
      "payable": false,
      "stateMutability": "view",
      "type": "function"
    },
    {
      "inputs": [
        {
          "name": "_owner",
          "type": "address"
        },
        {
          "name": "_allocations",
          "type": "address"
        }
      ],
      "payable": false,
      "stateMutability": "nonpayable",
      "type": "constructor"
    },
    {
      "anonymous": false,
      "inputs": [
        {
          "indexed": true,
          "name": "original",
          "type": "address"
        },
        {
          "indexed": true,
          "name": "amendedTo",
          "type": "address"
        }
      ],
      "name": "Amended",
      "type": "event"
    },
    {
      "anonymous": false,
      "inputs": [
        {
          "indexed": true,
          "name": "eth",
          "type": "address"
        },
        {
          "indexed": true,
          "name": "dot",
          "type": "bytes32"
        },
        {
          "indexed": true,
          "name": "idx",
          "type": "uint256"
        }
      ],
      "name": "Claimed",
      "type": "event"
    },
    {
      "anonymous": false,
      "inputs": [
        {
          "indexed": true,
          "name": "eth",
          "type": "address"
        },
        {
          "indexed": true,
          "name": "idx",
          "type": "uint256"
        }
      ],
      "name": "IndexAssigned",
      "type": "event"
    },
    {
      "anonymous": false,
      "inputs": [
        {
          "indexed": true,
          "name": "eth",
          "type": "address"
        }
      ],
      "name": "Vested",
      "type": "event"
    },
    {
      "anonymous": false,
      "inputs": [
        {
          "indexed": true,
          "name": "old",
          "type": "address"
        },
        {
          "indexed": true,
          "name": "current",
          "type": "address"
        }
      ],
      "name": "NewOwner",
      "type": "event"
    },
    {
      "constant": false,
      "inputs": [
        {
          "name": "_origs",
          "type": "address[]"
        },
        {
          "name": "_amends",
          "type": "address[]"
        }
      ],
      "name": "amend",
      "outputs": [],
      "payable": false,
      "stateMutability": "nonpayable",
      "type": "function"
    },
    {
      "constant": false,
      "inputs": [
        {
          "name": "_eths",
          "type": "address[]"
        }
      ],
      "name": "setVesting",
      "outputs": [],
      "payable": false,
      "stateMutability": "nonpayable",
      "type": "function"
    },
    {
      "constant": false,
      "inputs": [
        {
          "name": "_eths",
          "type": "address[]"
        }
      ],
      "name": "assignIndices",
      "outputs": [
        {
          "name": "",
          "type": "bool"
        }
      ],
      "payable": false,
      "stateMutability": "nonpayable",
      "type": "function"
    },
    {
      "constant": false,
      "inputs": [
        {
          "name": "_eth",
          "type": "address"
        },
        {
          "name": "_dot",
          "type": "bytes32"
        }
      ],
      "name": "claim",
      "outputs": [
        {
          "name": "",
          "type": "bool"
        }
      ],
      "payable": false,
      "stateMutability": "nonpayable",
      "type": "function"
    },
    {
      "constant": true,
      "inputs": [],
      "name": "claimedLength",
      "outputs": [
        {
          "name": "",
          "type": "uint256"
        }
      ],
      "payable": false,
      "stateMutability": "view",
      "type": "function"
    },
    {
      "constant": true,
      "inputs": [
        {
          "name": "_eth",
          "type": "address"
        }
      ],
      "name": "hasClaimed",
      "outputs": [
        {
          "name": "",
          "type": "bool"
        }
      ],
      "payable": false,
      "stateMutability": "view",
      "type": "function"
    }
  ],
  "bytecode": "0x608060405234801561001057600080fd5b50604051611d76380380611d768339818101604052604081101561003357600080fd5b810190808051906020019092919080519060200190929190505050816000806101000a81548173ffffffffffffffffffffffffffffffffffffffff021916908373ffffffffffffffffffffffffffffffffffffffff16021790555080600160006101000a81548173ffffffffffffffffffffffffffffffffffffffff021916908373ffffffffffffffffffffffffffffffffffffffff1602179055505050611c96806100e06000396000f3fe608060405234801561001057600080fd5b50600436106100cf5760003560e01c8063993238a21161008c578063c8622c2411610066578063c8622c2414610473578063dbe7e3bd146104d9578063edd8310414610547578063fc7e9c6f146105cb576100cf565b8063993238a2146102f4578063c37b85a61461036d578063c6788bdd146103fe576100cf565b806313af4035146100d45780631db2bbe81461011857806363aa56b11461016257806373b2e80e146102305780638da5cb5b1461028c57806393e40f7e146102d6575b600080fd5b610116600480360360208110156100ea57600080fd5b81019080803573ffffffffffffffffffffffffffffffffffffffff1690602001909291905050506105e9565b005b610120610769565b604051808273ffffffffffffffffffffffffffffffffffffffff1673ffffffffffffffffffffffffffffffffffffffff16815260200191505060405180910390f35b61022e6004803603604081101561017857600080fd5b810190808035906020019064010000000081111561019557600080fd5b8201836020820111156101a757600080fd5b803590602001918460208302840111640100000000831117156101c957600080fd5b9091929391929390803590602001906401000000008111156101ea57600080fd5b8201836020820111156101fc57600080fd5b8035906020019184602083028401116401000000008311171561021e57600080fd5b909192939192939050505061078f565b005b6102726004803603602081101561024657600080fd5b81019080803573ffffffffffffffffffffffffffffffffffffffff169060200190929190505050610af0565b604051808215151515815260200191505060405180910390f35b610294610c7c565b604051808273ffffffffffffffffffffffffffffffffffffffff1673ffffffffffffffffffffffffffffffffffffffff16815260200191505060405180910390f35b6102de610ca1565b6040518082815260200191505060405180910390f35b61036b6004803603602081101561030a57600080fd5b810190808035906020019064010000000081111561032757600080fd5b82018360208201111561033957600080fd5b8035906020019184602083028401116401000000008311171561035b57600080fd5b9091929391929390505050610cae565b005b6103e46004803603602081101561038357600080fd5b81019080803590602001906401000000008111156103a057600080fd5b8201836020820111156103b257600080fd5b803590602001918460208302840111640100000000831117156103d457600080fd5b9091929391929390505050610f93565b604051808215151515815260200191505060405180910390f35b6104406004803603602081101561041457600080fd5b81019080803573ffffffffffffffffffffffffffffffffffffffff169060200190929190505050610ff0565b60405180851515151581526020018481526020018381526020018215151515815260200194505050505060405180910390f35b6104bf6004803603604081101561048957600080fd5b81019080803573ffffffffffffffffffffffffffffffffffffffff1690602001909291908035906020019092919050505061103a565b604051808215151515815260200191505060405180910390f35b610505600480360360208110156104ef57600080fd5b810190808035906020019092919050505061167b565b604051808273ffffffffffffffffffffffffffffffffffffffff1673ffffffffffffffffffffffffffffffffffffffff16815260200191505060405180910390f35b6105896004803603602081101561055d57600080fd5b81019080803573ffffffffffffffffffffffffffffffffffffffff1690602001909291905050506116b7565b604051808273ffffffffffffffffffffffffffffffffffffffff1673ffffffffffffffffffffffffffffffffffffffff16815260200191505060405180910390f35b6105d36116ea565b6040518082815260200191505060405180910390f35b6000809054906101000a900473ffffffffffffffffffffffffffffffffffffffff1673ffffffffffffffffffffffffffffffffffffffff163373ffffffffffffffffffffffffffffffffffffffff16146106ab576040517f08c379a000000000000000000000000000000000000000000000000000000000815260040180806020018281038252600a8152602001807f4f6e6c79206f776e65720000000000000000000000000000000000000000000081525060200191505060405180910390fd5b8073ffffffffffffffffffffffffffffffffffffffff166000809054906101000a900473ffffffffffffffffffffffffffffffffffffffff1673ffffffffffffffffffffffffffffffffffffffff167f70aea8d848e8a90fb7661b227dc522eb6395c3dac71b63cb59edd5c9899b236460405160405180910390a3806000806101000a81548173ffffffffffffffffffffffffffffffffffffffff021916908373ffffffffffffffffffffffffffffffffffffffff16021790555050565b600160009054906101000a900473ffffffffffffffffffffffffffffffffffffffff1681565b6000809054906101000a900473ffffffffffffffffffffffffffffffffffffffff1673ffffffffffffffffffffffffffffffffffffffff163373ffffffffffffffffffffffffffffffffffffffff1614610851576040517f08c379a000000000000000000000000000000000000000000000000000000000815260040180806020018281038252600a8152602001807f4f6e6c79206f776e65720000000000000000000000000000000000000000000081525060200191505060405180910390fd5b8181905084849050146108af576040517f08c379a0000000000000000000000000000000000000000000000000000000008152600401808060200182810382526023815260200180611c3f6023913960400191505060405180910390fd5b60008090505b82829050811015610ae9576108f18585838181106108cf57fe5b9050602002013573ffffffffffffffffffffffffffffffffffffffff16610af0565b15610964576040517f08c379a000000000000000000000000000000000000000000000000000000000815260040180806020018281038252601b8152602001807f416464726573732068617320616c726561647920636c61696d6564000000000081525060200191505060405180910390fd5b82828281811061097057fe5b9050602002013573ffffffffffffffffffffffffffffffffffffffff166005600087878581811061099d57fe5b9050602002013573ffffffffffffffffffffffffffffffffffffffff1673ffffffffffffffffffffffffffffffffffffffff1673ffffffffffffffffffffffffffffffffffffffff16815260200190815260200160002060006101000a81548173ffffffffffffffffffffffffffffffffffffffff021916908373ffffffffffffffffffffffffffffffffffffffff160217905550828282818110610a3e57fe5b9050602002013573ffffffffffffffffffffffffffffffffffffffff1673ffffffffffffffffffffffffffffffffffffffff16858583818110610a7d57fe5b9050602002013573ffffffffffffffffffffffffffffffffffffffff1673ffffffffffffffffffffffffffffffffffffffff167f385f6a4b73038a5f14e3482732f99dde086b6fd0930af57604250b72726f439260405160405180910390a380806001019150506108b5565b5050505050565b6000816000600160009054906101000a900473ffffffffffffffffffffffffffffffffffffffff1673ffffffffffffffffffffffffffffffffffffffff166370a08231836040518263ffffffff1660e01b8152600401808273ffffffffffffffffffffffffffffffffffffffff1673ffffffffffffffffffffffffffffffffffffffff16815260200191505060206040518083038186803b158015610b9457600080fd5b505afa158015610ba8573d6000803e3d6000fd5b505050506040513d6020811015610bbe57600080fd5b8101908080519060200190929190505050905060008111610c2a576040517f08c379a0000000000000000000000000000000000000000000000000000000008152600401808060200182810382526026815260200180611b7a6026913960400191505060405180910390fd5b6000801b600360008673ffffffffffffffffffffffffffffffffffffffff1673ffffffffffffffffffffffffffffffffffffffff16815260200190815260200160002060020154141592505050919050565b6000809054906101000a900473ffffffffffffffffffffffffffffffffffffffff1681565b6000600480549050905090565b6000809054906101000a900473ffffffffffffffffffffffffffffffffffffffff1673ffffffffffffffffffffffffffffffffffffffff163373ffffffffffffffffffffffffffffffffffffffff1614610d70576040517f08c379a000000000000000000000000000000000000000000000000000000000815260040180806020018281038252600a8152602001807f4f6e6c79206f776e65720000000000000000000000000000000000000000000081525060200191505060405180910390fd5b60008090505b82829050811015610f8e57600060036000858585818110610d9357fe5b9050602002013573ffffffffffffffffffffffffffffffffffffffff1673ffffffffffffffffffffffffffffffffffffffff1673ffffffffffffffffffffffffffffffffffffffff1681526020019081526020016000209050610e1d848484818110610dfb57fe5b9050602002013573ffffffffffffffffffffffffffffffffffffffff16610af0565b15610e90576040517f08c379a000000000000000000000000000000000000000000000000000000000815260040180806020018281038252601b8152602001807f4163636f756e74206d757374206e6f7420626520636c61696d6564000000000081525060200191505060405180910390fd5b8060030160009054906101000a900460ff1615610ef8576040517f08c379a0000000000000000000000000000000000000000000000000000000008152600401808060200182810382526022815260200180611bf96022913960400191505060405180910390fd5b60018160030160006101000a81548160ff021916908315150217905550838383818110610f2157fe5b9050602002013573ffffffffffffffffffffffffffffffffffffffff1673ffffffffffffffffffffffffffffffffffffffff167fd22f93ebccd92bee081e7d955845b2b8adb77f610cc3789aa86553fcf54c96aa60405160405180910390a2508080600101915050610d76565b505050565b600080600090505b83839050811015610fe557610fd7848483818110610fb557fe5b9050602002013573ffffffffffffffffffffffffffffffffffffffff166116f0565b508080600101915050610f9b565b506001905092915050565b60036020528060005260406000206000915090508060000160009054906101000a900460ff16908060010154908060020154908060030160009054906101000a900460ff16905084565b6000826000600160009054906101000a900473ffffffffffffffffffffffffffffffffffffffff1673ffffffffffffffffffffffffffffffffffffffff166370a08231836040518263ffffffff1660e01b8152600401808273ffffffffffffffffffffffffffffffffffffffff1673ffffffffffffffffffffffffffffffffffffffff16815260200191505060206040518083038186803b1580156110de57600080fd5b505afa1580156110f2573d6000803e3d6000fd5b505050506040513d602081101561110857600080fd5b8101908080519060200190929190505050905060008111611174576040517f08c379a0000000000000000000000000000000000000000000000000000000008152600401808060200182810382526026815260200180611b7a6026913960400191505060405180910390fd5b846000801b600360008373ffffffffffffffffffffffffffffffffffffffff1673ffffffffffffffffffffffffffffffffffffffff168152602001908152602001600020600201541461122f576040517f08c379a000000000000000000000000000000000000000000000000000000000815260040180806020018281038252601c8152602001807f4163636f756e742068617320616c726561647920636c61696d65642e0000000081525060200191505060405180910390fd5b6000801b85141561128b576040517f08c379a0000000000000000000000000000000000000000000000000000000008152600401808060200182810382526027815260200180611ba06027913960400191505060405180910390fd5b600073ffffffffffffffffffffffffffffffffffffffff16600560008873ffffffffffffffffffffffffffffffffffffffff1673ffffffffffffffffffffffffffffffffffffffff16815260200190815260200160002060009054906101000a900473ffffffffffffffffffffffffffffffffffffffff1673ffffffffffffffffffffffffffffffffffffffff1614611406573373ffffffffffffffffffffffffffffffffffffffff16600560008873ffffffffffffffffffffffffffffffffffffffff1673ffffffffffffffffffffffffffffffffffffffff16815260200190815260200160002060009054906101000a900473ffffffffffffffffffffffffffffffffffffffff1673ffffffffffffffffffffffffffffffffffffffff1614611401576040517f08c379a0000000000000000000000000000000000000000000000000000000008152600401808060200182810382526032815260200180611bc76032913960400191505060405180910390fd5b61148b565b3373ffffffffffffffffffffffffffffffffffffffff168673ffffffffffffffffffffffffffffffffffffffff161461148a576040517f08c379a0000000000000000000000000000000000000000000000000000000008152600401808060200182810382526024815260200180611c1b6024913960400191505060405180910390fd5b5b6000600360008873ffffffffffffffffffffffffffffffffffffffff1673ffffffffffffffffffffffffffffffffffffffff1681526020019081526020016000206001015414801561152a5750600360008773ffffffffffffffffffffffffffffffffffffffff1673ffffffffffffffffffffffffffffffffffffffff16815260200190815260200160002060000160009054906101000a900460ff16155b1561153a57611538866116f0565b505b84600360008873ffffffffffffffffffffffffffffffffffffffff1673ffffffffffffffffffffffffffffffffffffffff1681526020019081526020016000206002018190555060048690806001815401808255809150509060018203906000526020600020016000909192909190916101000a81548173ffffffffffffffffffffffffffffffffffffffff021916908373ffffffffffffffffffffffffffffffffffffffff16021790555050600360008773ffffffffffffffffffffffffffffffffffffffff1673ffffffffffffffffffffffffffffffffffffffff16815260200190815260200160002060010154858773ffffffffffffffffffffffffffffffffffffffff167f9b01158d4bc10c112ba32b5240cda97e49e2eb86021f03f6a0f460342ac4dfda60405160405180910390a46001935050505092915050565b6004818154811061168857fe5b906000526020600020016000915054906101000a900473ffffffffffffffffffffffffffffffffffffffff1681565b60056020528060005260406000206000915054906101000a900473ffffffffffffffffffffffffffffffffffffffff1681565b60025481565b6000816000600160009054906101000a900473ffffffffffffffffffffffffffffffffffffffff1673ffffffffffffffffffffffffffffffffffffffff166370a08231836040518263ffffffff1660e01b8152600401808273ffffffffffffffffffffffffffffffffffffffff1673ffffffffffffffffffffffffffffffffffffffff16815260200191505060206040518083038186803b15801561179457600080fd5b505afa1580156117a8573d6000803e3d6000fd5b505050506040513d60208110156117be57600080fd5b810190808051906020019092919050505090506000811161182a576040517f08c379a0000000000000000000000000000000000000000000000000000000008152600401808060200182810382526026815260200180611b7a6026913960400191505060405180910390fd5b836000801b600360008373ffffffffffffffffffffffffffffffffffffffff1673ffffffffffffffffffffffffffffffffffffffff16815260200190815260200160002060020154146118e5576040517f08c379a000000000000000000000000000000000000000000000000000000000815260040180806020018281038252601c8152602001807f4163636f756e742068617320616c726561647920636c61696d65642e0000000081525060200191505060405180910390fd5b6000600360008773ffffffffffffffffffffffffffffffffffffffff1673ffffffffffffffffffffffffffffffffffffffff168152602001908152602001600020600101541461199d576040517f08c379a00000000000000000000000000000000000000000000000000000000081526004018080602001828103825260198152602001807f43616e6e6f7420726561737369676e20616e20696e6465782e0000000000000081525060200191505060405180910390fd5b600360008673ffffffffffffffffffffffffffffffffffffffff1673ffffffffffffffffffffffffffffffffffffffff16815260200190815260200160002060000160009054906101000a900460ff1615611a43576040517f08c379a000000000000000000000000000000000000000000000000000000000815260040180806020018281038252602a815260200180611b50602a913960400191505060405180910390fd5b6000600254905060026000815480929190600101919050555080600360008873ffffffffffffffffffffffffffffffffffffffff1673ffffffffffffffffffffffffffffffffffffffff168152602001908152602001600020600101819055506001600360008873ffffffffffffffffffffffffffffffffffffffff1673ffffffffffffffffffffffffffffffffffffffff16815260200190815260200160002060000160006101000a81548160ff021916908315150217905550808673ffffffffffffffffffffffffffffffffffffffff167ffe8e0f7f7b06a0461a35a3efd185ab04bf2c1b47d74ced0ad04fc5dda048d4aa60405160405180910390a3600194505050505091905056fe416464726573732068617320616c7265616479206265656e2061737369676e656420616e20696e646578457468657265756d206164647265737320686173206e6f20444f5420616c6c6f636174696f6e4661696c656420746f2070726f76696465206120506f6c6b61646f74207075626c6963206b65794164647265737320697320616d656e64656420616e642073656e646572206973206e6f742074686520616d656e646d656e744163636f756e74206d757374206e6f742062652076657374656420616c726561647953656e646572206973206e6f742074686520616c6c6f636174696f6e20616464726573734d757374207375626d697420617272617973206f6620657175616c206c656e6774682ea265627a7a723058207af6abf5b8364be4529f590213eea1a4177ad19a7642bc41eabd0ddbce6a6e4e64736f6c63430005090032",
  "source": "pragma solidity 0.5.9;\n\nimport \"./FrozenToken.sol\";\n\n/// @author Web3 Foundation\n/// @title  Claims\n///         Allows allocations to be claimed to Polkadot public keys.\ncontract Claims is Owned {\n\n    struct Claim {\n        bool    hasIndex;   // Has the index been set?\n        uint    index;      // Index for short address.\n        bytes32 polkadot;   // Polkadot public key.\n        bool    vested;     // Is this allocation vested?\n    }\n\n    // The address of the allocation indicator contract.\n    FrozenToken public allocationIndicator; // 0xb59f67A8BfF5d8Cd03f6AC17265c550Ed8F33907\n\n    // The next index to be assigned.\n    uint public nextIndex;\n\n    // Maps allocations to `Claim` data.\n    mapping (address => Claim) public claims;\n\n    // Addresses that already claimed so we can easily grab them from state.\n    address[] public claimed;\n\n    // Amended keys, old address => new address. New address is allowed to claim for old address.\n    mapping (address => address) public amended;\n\n    // Event for when an allocation address amendment is made.\n    event Amended(address indexed original, address indexed amendedTo);\n    // Event for when an allocation is claimed to a Polkadot address.\n    event Claimed(address indexed eth, bytes32 indexed dot, uint indexed idx);\n    // Event for when an index is assigned to an allocation.\n    event IndexAssigned(address indexed eth, uint indexed idx);\n    // Event for when vesting is set on an allocation.\n    event Vested(address indexed eth);\n\n    constructor(address _owner, address _allocations) public {\n        owner = _owner;\n        allocationIndicator = FrozenToken(_allocations);\n    }\n\n    /// Allows owner to manually amend allocations to a new address that can claim.\n    /// @dev The given arrays must be same length and index must map directly.\n    /// @param _origs An array of original (allocation) addresses.\n    /// @param _amends An array of the new addresses which can claim those allocations.\n    function amend(address[] calldata _origs, address[] calldata _amends)\n        external\n        only_owner\n    {\n        require(\n            _origs.length == _amends.length,\n            \"Must submit arrays of equal length.\"\n        );\n\n        for (uint i = 0; i < _amends.length; i++) {\n            require(!hasClaimed(_origs[i]), \"Address has already claimed\");\n            amended[_origs[i]] = _amends[i];\n            emit Amended(_origs[i], _amends[i]);\n        }\n    }\n\n    /// Allows owner to manually toggle vesting onto allocations.\n    /// @param _eths The addresses for which to set vesting.\n    function setVesting(address[] calldata _eths)\n        external\n        only_owner\n    {\n        for (uint i = 0; i < _eths.length; i++) {\n            Claim storage claimData = claims[_eths[i]];\n            require(!hasClaimed(_eths[i]), \"Account must not be claimed\");\n            require(!claimData.vested, \"Account must not be vested already\");\n            claimData.vested = true;\n            emit Vested(_eths[i]);\n        }\n    }\n\n    /// Allows anyone to assign a batch of indices onto unassigned and unclaimed allocations.\n    /// @dev This function is safe because all the necessary checks are made on `assignNextIndex`.\n    /// @param _eths An array of allocation addresses to assign indices for.\n    /// @return bool True is successful.\n    function assignIndices(address[] calldata _eths)\n        external returns (bool)\n    {\n        for (uint i = 0; i < _eths.length; i++) {\n            assignNextIndex(_eths[i]);\n        }\n        return true;\n    }\n\n    /// Claims an allocation associated with an `_eth` address to a `_dot` public key.\n    /// @dev Can only be called by the `_eth` address or the amended address for the allocation.\n    /// @param _eth The allocation address to claim.\n    /// @param _dot The Polkadot public key to claim.\n    /// @return True if successful.\n    function claim(address _eth, bytes32 _dot)\n        external\n        has_allocation(_eth)\n        not_claimed(_eth)\n        returns (bool)\n    {\n        require(_dot != bytes32(0), \"Failed to provide a Polkadot public key\");\n        \n        if (amended[_eth] != address(0x0)) {\n            require(amended[_eth] == msg.sender, \"Address is amended and sender is not the amendment\");\n        } else {\n            require(_eth == msg.sender, \"Sender is not the allocation address\");\n        }\n\n        if (claims[_eth].index == 0 && !claims[_eth].hasIndex) {\n            assignNextIndex(_eth);\n        }\n\n        claims[_eth].polkadot = _dot;\n        claimed.push(_eth);\n\n        emit Claimed(_eth, _dot, claims[_eth].index);\n        return true;\n    }\n\n    /// Get the length of `claimed`.\n    /// @return uint The number of accounts that have claimed.\n    function claimedLength()\n        external view returns (uint)\n    {   \n        return claimed.length;\n    }\n\n    /// Get whether an allocation has been claimed.\n    /// @return bool True if claimed.\n    function hasClaimed(address _eth)\n        has_allocation(_eth)\n        public view returns (bool)\n    {\n        return claims[_eth].polkadot != bytes32(0);\n    }\n\n    /// Assings an index to an allocation address.\n    /// @dev Public function.\n    /// @param _eth The allocation address.\n    function assignNextIndex(address _eth)\n        has_allocation(_eth)\n        not_claimed(_eth)\n        internal returns (bool)\n    {\n        require(claims[_eth].index == 0, \"Cannot reassign an index.\");\n        require(!claims[_eth].hasIndex, \"Address has already been assigned an index\");\n        uint idx = nextIndex;\n        nextIndex++;\n        claims[_eth].index = idx;\n        claims[_eth].hasIndex = true;\n        emit IndexAssigned(_eth, idx);\n        return true;\n    }\n\n    /// @dev Requires that `_eth` address has DOT allocation.\n    modifier has_allocation(address _eth) {\n        uint bal = allocationIndicator.balanceOf(_eth);\n        require(\n            bal > 0,\n            \"Ethereum address has no DOT allocation\"\n        );\n        _;\n    }\n\n    /// @dev Requires that `_eth` address has not claimed.\n    modifier not_claimed(address _eth) {\n        require(\n            claims[_eth].polkadot == bytes32(0),\n            \"Account has already claimed.\"\n        );\n        _;\n    }\n}\n",
  "sourcePath": "/home/volt/workspaces/w3f/polkadot-claims/contracts/Claims.sol",
  "compiler": {
    "name": "solc",
    "version": "0.5.9+commit.e560f70d.Emscripten.clang"
  },
  "schemaVersion": "3.0.9",
  "updatedAt": "2019-07-02T08:17:04.285Z",
  "devdoc": {
    "author": "Web3 Foundation",
    "methods": {
      "amend(address[],address[])": {
        "details": "The given arrays must be same length and index must map directly.",
        "params": {
          "_amends": "An array of the new addresses which can claim those allocations.",
          "_origs": "An array of original (allocation) addresses."
        }
      },
      "assignIndices(address[])": {
        "details": "This function is safe because all the necessary checks are made on `assignNextIndex`.",
        "params": {
          "_eths": "An array of allocation addresses to assign indices for."
        },
        "return": "bool True is successful."
      },
      "claim(address,bytes32)": {
        "details": "Can only be called by the `_eth` address or the amended address for the allocation.",
        "params": {
          "_dot": "The Polkadot public key to claim.",
          "_eth": "The allocation address to claim."
        },
        "return": "True if successful."
      },
      "claimsLength()": {
        "return": "uint The number of accounts that have claimed."
      },
      "hasClaimed(address)": {
        "return": "bool True if claimed."
      },
      "setVesting(address[])": {
        "params": {
          "_eths": "The addresses for which to set vesting."
        }
      },
      "claimedLength()": {
        "return": "uint The number of accounts that have claimed."
      }
    },
    "title": "Claims         Allows allocations to be claimed to Polkadot public keys."
  },
  "userdoc": {
    "methods": {
      "amend(address[],address[])": {
        "notice": "Allows owner to manually amend allocations to a new address that can claim."
      },
      "assignIndices(address[])": {
        "notice": "Allows anyone to assign a batch of indices onto unassigned and unclaimed allocations."
      },
      "claim(address,bytes32)": {
        "notice": "Claims an allocation associated with an `_eth` address to a `_dot` public key."
      },
      "claimsLength()": {
        "notice": "Get the length of `haveClaimed`."
      },
      "hasClaimed(address)": {
        "notice": "Get whether an allocation has been claimed."
      },
      "setVesting(address[])": {
        "notice": "Allows owner to manually toggle vesting onto allocations."
      },
      "claimedLength()": {
        "notice": "Get the length of `claimed`."
      }
    }
  }
}