{
  "contractName": "Claims",
  "abi": [
    {
      "constant": false,
      "inputs": [
        {
          "name": "_new",
          "type": "address"
        }
      ],
      "name": "setOwner",
      "outputs": [],
      "payable": false,
      "stateMutability": "nonpayable",
      "type": "function"
    },
    {
      "constant": true,
      "inputs": [],
      "name": "allocationIndicator",
      "outputs": [
        {
          "name": "",
          "type": "address"
        }
      ],
      "payable": false,
      "stateMutability": "view",
      "type": "function"
    },
    {
      "constant": true,
      "inputs": [],
      "name": "owner",
      "outputs": [
        {
          "name": "",
          "type": "address"
        }
      ],
      "payable": false,
      "stateMutability": "view",
      "type": "function"
    },
    {
      "constant": true,
      "inputs": [
        {
          "name": "",
          "type": "address"
        }
      ],
      "name": "claims",
      "outputs": [
        {
          "name": "index",
          "type": "uint256"
        },
        {
          "name": "polkadot",
          "type": "bytes32"
        },
        {
          "name": "hasIndex",
          "type": "bool"
        },
        {
          "name": "vested",
          "type": "bool"
        }
      ],
      "payable": false,
      "stateMutability": "view",
      "type": "function"
    },
    {
      "constant": true,
      "inputs": [
        {
          "name": "",
          "type": "uint256"
        }
      ],
      "name": "claimed",
      "outputs": [
        {
          "name": "",
          "type": "address"
        }
      ],
      "payable": false,
      "stateMutability": "view",
      "type": "function"
    },
    {
      "constant": true,
      "inputs": [
        {
          "name": "",
          "type": "address"
        }
      ],
      "name": "amended",
      "outputs": [
        {
          "name": "",
          "type": "address"
        }
      ],
      "payable": false,
      "stateMutability": "view",
      "type": "function"
    },
    {
      "constant": true,
      "inputs": [],
      "name": "nextIndex",
      "outputs": [
        {
          "name": "",
          "type": "uint256"
        }
      ],
      "payable": false,
      "stateMutability": "view",
      "type": "function"
    },
    {
      "inputs": [
        {
          "name": "_owner",
          "type": "address"
        },
        {
          "name": "_allocations",
          "type": "address"
        }
      ],
      "payable": false,
      "stateMutability": "nonpayable",
      "type": "constructor"
    },
    {
      "anonymous": false,
      "inputs": [
        {
          "indexed": true,
          "name": "original",
          "type": "address"
        },
        {
          "indexed": true,
          "name": "amendedTo",
          "type": "address"
        }
      ],
      "name": "Amended",
      "type": "event"
    },
    {
      "anonymous": false,
      "inputs": [
        {
          "indexed": true,
          "name": "eth",
          "type": "address"
        },
        {
          "indexed": true,
          "name": "dot",
          "type": "bytes32"
        },
        {
          "indexed": true,
          "name": "idx",
          "type": "uint256"
        }
      ],
      "name": "Claimed",
      "type": "event"
    },
    {
      "anonymous": false,
      "inputs": [
        {
          "indexed": true,
          "name": "eth",
          "type": "address"
        },
        {
          "indexed": true,
          "name": "idx",
          "type": "uint256"
        }
      ],
      "name": "IndexAssigned",
      "type": "event"
    },
    {
      "anonymous": false,
      "inputs": [
        {
          "indexed": true,
          "name": "eth",
          "type": "address"
        }
      ],
      "name": "Vested",
      "type": "event"
    },
    {
      "anonymous": false,
      "inputs": [
        {
          "indexed": true,
          "name": "old",
          "type": "address"
        },
        {
          "indexed": true,
          "name": "current",
          "type": "address"
        }
      ],
      "name": "NewOwner",
      "type": "event"
    },
    {
      "constant": false,
      "inputs": [
        {
          "name": "_origs",
          "type": "address[]"
        },
        {
          "name": "_amends",
          "type": "address[]"
        }
      ],
      "name": "amend",
      "outputs": [],
      "payable": false,
      "stateMutability": "nonpayable",
      "type": "function"
    },
    {
      "constant": false,
      "inputs": [
        {
          "name": "_eths",
          "type": "address[]"
        }
      ],
      "name": "setVesting",
      "outputs": [],
      "payable": false,
      "stateMutability": "nonpayable",
      "type": "function"
    },
    {
      "constant": false,
      "inputs": [
        {
          "name": "_eths",
          "type": "address[]"
        }
      ],
      "name": "assignIndices",
      "outputs": [
        {
          "name": "",
          "type": "bool"
        }
      ],
      "payable": false,
      "stateMutability": "nonpayable",
      "type": "function"
    },
    {
      "constant": false,
      "inputs": [
        {
          "name": "_eth",
          "type": "address"
        },
        {
          "name": "_dot",
          "type": "bytes32"
        }
      ],
      "name": "claim",
      "outputs": [
        {
          "name": "",
          "type": "bool"
        }
      ],
      "payable": false,
      "stateMutability": "nonpayable",
      "type": "function"
    },
    {
      "constant": true,
      "inputs": [],
      "name": "claimedLength",
      "outputs": [
        {
          "name": "",
          "type": "uint256"
        }
      ],
      "payable": false,
      "stateMutability": "view",
      "type": "function"
    },
    {
      "constant": true,
      "inputs": [
        {
          "name": "_eth",
          "type": "address"
        }
      ],
      "name": "hasClaimed",
      "outputs": [
        {
          "name": "",
          "type": "bool"
        }
      ],
      "payable": false,
      "stateMutability": "view",
      "type": "function"
    }
  ],
  "bytecode": "0x608060405234801561001057600080fd5b5060405161122c38038061122c8339818101604052604081101561003357600080fd5b5080516020909101516001600160a01b0382166100b157604080517f08c379a000000000000000000000000000000000000000000000000000000000815260206004820152601d60248201527f4d7573742070726f7669646520616e206f776e65722061646472657373000000604482015290519081900360640190fd5b6001600160a01b038116610110576040517f08c379a00000000000000000000000000000000000000000000000000000000081526004018080602001828103825260238152602001806112096023913960400191505060405180910390fd5b600080546001600160a01b039384166001600160a01b031991821617909155600180549290931691161790556110be8061014b6000396000f3fe608060405234801561001057600080fd5b50600436106100cf5760003560e01c8063993238a21161008c578063c8622c2411610066578063c8622c2414610364578063dbe7e3bd14610390578063edd83104146103ad578063fc7e9c6f146103d3576100cf565b8063993238a21461023a578063c37b85a6146102a8578063c6788bdd14610316576100cf565b806313af4035146100d45780631db2bbe8146100fc57806363aa56b11461012057806373b2e80e146101de5780638da5cb5b1461021857806393e40f7e14610220575b600080fd5b6100fa600480360360208110156100ea57600080fd5b50356001600160a01b03166103db565b005b610104610482565b604080516001600160a01b039092168252519081900360200190f35b6100fa6004803603604081101561013657600080fd5b810190602081018135600160201b81111561015057600080fd5b82018360208201111561016257600080fd5b803590602001918460208302840111600160201b8311171561018357600080fd5b919390929091602081019035600160201b8111156101a057600080fd5b8201836020820111156101b257600080fd5b803590602001918460208302840111600160201b831117156101d357600080fd5b509092509050610491565b610204600480360360208110156101f457600080fd5b50356001600160a01b03166106a1565b604080519115158252519081900360200190f35b610104610781565b610228610790565b60408051918252519081900360200190f35b6100fa6004803603602081101561025057600080fd5b810190602081018135600160201b81111561026a57600080fd5b82018360208201111561027c57600080fd5b803590602001918460208302840111600160201b8311171561029d57600080fd5b509092509050610796565b610204600480360360208110156102be57600080fd5b810190602081018135600160201b8111156102d857600080fd5b8201836020820111156102ea57600080fd5b803590602001918460208302840111600160201b8311171561030b57600080fd5b50909250905061094b565b61033c6004803603602081101561032c57600080fd5b50356001600160a01b031661098e565b6040805194855260208501939093529015158383015215156060830152519081900360800190f35b6102046004803603604081101561037a57600080fd5b506001600160a01b0381351690602001356109bb565b610104600480360360208110156103a657600080fd5b5035610ccf565b610104600480360360208110156103c357600080fd5b50356001600160a01b0316610cf6565b610228610d11565b6000546001600160a01b03163314610427576040805162461bcd60e51b815260206004820152600a60248201526927b7363c9037bbb732b960b11b604482015290519081900360640190fd5b600080546040516001600160a01b03808516939216917f70aea8d848e8a90fb7661b227dc522eb6395c3dac71b63cb59edd5c9899b236491a3600080546001600160a01b0319166001600160a01b0392909216919091179055565b6001546001600160a01b031681565b6000546001600160a01b031633146104dd576040805162461bcd60e51b815260206004820152600a60248201526927b7363c9037bbb732b960b11b604482015290519081900360640190fd5b82811461051b5760405162461bcd60e51b81526004018080602001828103825260238152602001806110676023913960400191505060405180910390fd5b60005b8181101561069a5761054a85858381811061053557fe5b905060200201356001600160a01b03166106a1565b1561059c576040805162461bcd60e51b815260206004820152601b60248201527f416464726573732068617320616c726561647920636c61696d65640000000000604482015290519081900360640190fd5b8282828181106105a857fe5b905060200201356001600160a01b0316600560008787858181106105c857fe5b905060200201356001600160a01b03166001600160a01b03166001600160a01b0316815260200190815260200160002060006101000a8154816001600160a01b0302191690836001600160a01b0316021790555082828281811061062857fe5b905060200201356001600160a01b03166001600160a01b031685858381811061064d57fe5b905060200201356001600160a01b03166001600160a01b03167f385f6a4b73038a5f14e3482732f99dde086b6fd0930af57604250b72726f439260405160405180910390a360010161051e565b5050505050565b600154604080516370a0823160e01b81526001600160a01b0380851660048301529151600093859385939116916370a0823191602480820192602092909190829003018186803b1580156106f457600080fd5b505afa158015610708573d6000803e3d6000fd5b505050506040513d602081101561071e57600080fd5b505190508061075e5760405162461bcd60e51b8152600401808060200182810382526026815260200180610fa26026913960400191505060405180910390fd5b5050506001600160a01b0316600090815260036020526040902060010154151590565b6000546001600160a01b031681565b60045490565b6000546001600160a01b031633146107e2576040805162461bcd60e51b815260206004820152600a60248201526927b7363c9037bbb732b960b11b604482015290519081900360640190fd5b60005b81811015610946576000600360008585858181106107ff57fe5b905060200201356001600160a01b03166001600160a01b03166001600160a01b03168152602001908152602001600020905061084084848481811061053557fe5b15610892576040805162461bcd60e51b815260206004820152601b60248201527f4163636f756e74206d757374206e6f7420626520636c61696d65640000000000604482015290519081900360640190fd5b6002810154610100900460ff16156108db5760405162461bcd60e51b81526004018080602001828103825260228152602001806110216022913960400191505060405180910390fd5b60028101805461ff0019166101001790558383838181106108f857fe5b905060200201356001600160a01b03166001600160a01b03167fd22f93ebccd92bee081e7d955845b2b8adb77f610cc3789aa86553fcf54c96aa60405160405180910390a2506001016107e5565b505050565b6000805b828110156109845761097b84848381811061096657fe5b905060200201356001600160a01b0316610d17565b5060010161094f565b5060019392505050565b60036020526000908152604090208054600182015460029092015490919060ff8082169161010090041684565b600154604080516370a0823160e01b81526001600160a01b0380861660048301529151600093869385939116916370a0823191602480820192602092909190829003018186803b158015610a0e57600080fd5b505afa158015610a22573d6000803e3d6000fd5b505050506040513d6020811015610a3857600080fd5b5051905080610a785760405162461bcd60e51b8152600401808060200182810382526026815260200180610fa26026913960400191505060405180910390fd5b6001600160a01b038516600090815260036020526040902060010154859015610ae8576040805162461bcd60e51b815260206004820152601c60248201527f4163636f756e742068617320616c726561647920636c61696d65642e00000000604482015290519081900360640190fd5b84610b245760405162461bcd60e51b8152600401808060200182810382526027815260200180610fc86027913960400191505060405180910390fd5b6001600160a01b038681166000908152600560205260409020541615610ba1576001600160a01b03868116600090815260056020526040902054163314610b9c5760405162461bcd60e51b8152600401808060200182810382526032815260200180610fef6032913960400191505060405180910390fd5b610be8565b6001600160a01b0386163314610be85760405162461bcd60e51b81526004018080602001828103825260248152602001806110436024913960400191505060405180910390fd5b6001600160a01b038616600090815260036020526040902054158015610c2a57506001600160a01b03861660009081526003602052604090206002015460ff16155b15610c3a57610c3886610d17565b505b6001600160a01b03861660008181526003602052604080822060018082018a90556004805491820190557f8a35acfbc15ff81a39ae7d344fd709f28e8600b4aa8c65c6b64bfe7fe36bd19b0180546001600160a01b031916851790555490519092889290917f9b01158d4bc10c112ba32b5240cda97e49e2eb86021f03f6a0f460342ac4dfda9190a450600195945050505050565b60048181548110610cdc57fe5b6000918252602090912001546001600160a01b0316905081565b6005602052600090815260409020546001600160a01b031681565b60025481565b600154604080516370a0823160e01b81526001600160a01b0380851660048301529151600093859385939116916370a0823191602480820192602092909190829003018186803b158015610d6a57600080fd5b505afa158015610d7e573d6000803e3d6000fd5b505050506040513d6020811015610d9457600080fd5b5051905080610dd45760405162461bcd60e51b8152600401808060200182810382526026815260200180610fa26026913960400191505060405180910390fd5b6001600160a01b038416600090815260036020526040902060010154849015610e44576040805162461bcd60e51b815260206004820152601c60248201527f4163636f756e742068617320616c726561647920636c61696d65642e00000000604482015290519081900360640190fd5b6001600160a01b03851660009081526003602052604090205415610eaf576040805162461bcd60e51b815260206004820152601960248201527f43616e6e6f7420726561737369676e20616e20696e6465782e00000000000000604482015290519081900360640190fd5b6001600160a01b03851660009081526003602052604090206002015460ff1615610f0a5760405162461bcd60e51b815260040180806020018281038252602a815260200180610f78602a913960400191505060405180910390fd5b60028054600180820183556001600160a01b038816600081815260036020526040808220858155909501805460ff191690931790925592519192839290917ffe8e0f7f7b06a0461a35a3efd185ab04bf2c1b47d74ced0ad04fc5dda048d4aa91a35060019594505050505056fe416464726573732068617320616c7265616479206265656e2061737369676e656420616e20696e646578457468657265756d206164647265737320686173206e6f20444f5420616c6c6f636174696f6e4661696c656420746f2070726f76696465206120506f6c6b61646f74207075626c6963206b65794164647265737320697320616d656e64656420616e642073656e646572206973206e6f742074686520616d656e646d656e744163636f756e74206d757374206e6f742062652076657374656420616c726561647953656e646572206973206e6f742074686520616c6c6f636174696f6e20616464726573734d757374207375626d697420617272617973206f6620657175616c206c656e6774682ea265627a7a723058204a4d6b8e4db98df457174d9d4582139f3aa6dd8e670f61dd9bdc792bc20cc7c764736f6c634300050900324d7573742070726f7669646520616e20616c6c6f636174696f6e732061646472657373",
  "source": "pragma solidity 0.5.9;\n\nimport \"./FrozenToken.sol\";\n\n/// @author Web3 Foundation\n/// @title  Claims\n///         Allows allocations to be claimed to Polkadot public keys.\ncontract Claims is Owned {\n\n    struct Claim {\n        uint    index;      // Index for short address.\n        bytes32 polkadot;   // Polkadot public key.\n        bool    hasIndex;   // Has the index been set?\n        bool    vested;     // Is this allocation vested?\n    }\n\n    // The address of the allocation indicator contract.\n    FrozenToken public allocationIndicator; // 0xb59f67A8BfF5d8Cd03f6AC17265c550Ed8F33907\n\n    // The next index to be assigned.\n    uint public nextIndex;\n\n    // Maps allocations to `Claim` data.\n    mapping (address => Claim) public claims;\n\n    // Addresses that already claimed so we can easily grab them from state.\n    address[] public claimed;\n\n    // Amended keys, old address => new address. New address is allowed to claim for old address.\n    mapping (address => address) public amended;\n\n    // Event for when an allocation address amendment is made.\n    event Amended(address indexed original, address indexed amendedTo);\n    // Event for when an allocation is claimed to a Polkadot address.\n    event Claimed(address indexed eth, bytes32 indexed dot, uint indexed idx);\n    // Event for when an index is assigned to an allocation.\n    event IndexAssigned(address indexed eth, uint indexed idx);\n    // Event for when vesting is set on an allocation.\n    event Vested(address indexed eth);\n\n    constructor(address _owner, address _allocations) public {\n        require(_owner != address(0x0), \"Must provide an owner address\");\n        require(_allocations != address(0x0), \"Must provide an allocations address\");\n\n        owner = _owner;\n        allocationIndicator = FrozenToken(_allocations);\n    }\n\n    /// Allows owner to manually amend allocations to a new address that can claim.\n    /// @dev The given arrays must be same length and index must map directly.\n    /// @param _origs An array of original (allocation) addresses.\n    /// @param _amends An array of the new addresses which can claim those allocations.\n    function amend(address[] calldata _origs, address[] calldata _amends)\n        external\n        only_owner\n    {\n        require(\n            _origs.length == _amends.length,\n            \"Must submit arrays of equal length.\"\n        );\n\n        for (uint i = 0; i < _amends.length; i++) {\n            require(!hasClaimed(_origs[i]), \"Address has already claimed\");\n            amended[_origs[i]] = _amends[i];\n            emit Amended(_origs[i], _amends[i]);\n        }\n    }\n\n    /// Allows owner to manually toggle vesting onto allocations.\n    /// @param _eths The addresses for which to set vesting.\n    function setVesting(address[] calldata _eths)\n        external\n        only_owner\n    {\n        for (uint i = 0; i < _eths.length; i++) {\n            Claim storage claimData = claims[_eths[i]];\n            require(!hasClaimed(_eths[i]), \"Account must not be claimed\");\n            require(!claimData.vested, \"Account must not be vested already\");\n            claimData.vested = true;\n            emit Vested(_eths[i]);\n        }\n    }\n\n    /// Allows anyone to assign a batch of indices onto unassigned and unclaimed allocations.\n    /// @dev This function is safe because all the necessary checks are made on `assignNextIndex`.\n    /// @param _eths An array of allocation addresses to assign indices for.\n    /// @return bool True is successful.\n    function assignIndices(address[] calldata _eths)\n        external returns (bool)\n    {\n        for (uint i = 0; i < _eths.length; i++) {\n            assignNextIndex(_eths[i]);\n        }\n        return true;\n    }\n\n    /// Claims an allocation associated with an `_eth` address to a `_dot` public key.\n    /// @dev Can only be called by the `_eth` address or the amended address for the allocation.\n    /// @param _eth The allocation address to claim.\n    /// @param _dot The Polkadot public key to claim.\n    /// @return True if successful.\n    function claim(address _eth, bytes32 _dot)\n        external\n        has_allocation(_eth)\n        not_claimed(_eth)\n        returns (bool)\n    {\n        require(_dot != bytes32(0), \"Failed to provide a Polkadot public key\");\n        \n        if (amended[_eth] != address(0x0)) {\n            require(amended[_eth] == msg.sender, \"Address is amended and sender is not the amendment\");\n        } else {\n            require(_eth == msg.sender, \"Sender is not the allocation address\");\n        }\n\n        if (claims[_eth].index == 0 && !claims[_eth].hasIndex) {\n            assignNextIndex(_eth);\n        }\n\n        claims[_eth].polkadot = _dot;\n        claimed.push(_eth);\n\n        emit Claimed(_eth, _dot, claims[_eth].index);\n        return true;\n    }\n\n    /// Get the length of `claimed`.\n    /// @return uint The number of accounts that have claimed.\n    function claimedLength()\n        external view returns (uint)\n    {   \n        return claimed.length;\n    }\n\n    /// Get whether an allocation has been claimed.\n    /// @return bool True if claimed.\n    function hasClaimed(address _eth)\n        has_allocation(_eth)\n        public view returns (bool)\n    {\n        return claims[_eth].polkadot != bytes32(0);\n    }\n\n    /// Assings an index to an allocation address.\n    /// @dev Public function.\n    /// @param _eth The allocation address.\n    function assignNextIndex(address _eth)\n        has_allocation(_eth)\n        not_claimed(_eth)\n        internal returns (bool)\n    {\n        require(claims[_eth].index == 0, \"Cannot reassign an index.\");\n        require(!claims[_eth].hasIndex, \"Address has already been assigned an index\");\n        uint idx = nextIndex;\n        nextIndex++;\n        claims[_eth].index = idx;\n        claims[_eth].hasIndex = true;\n        emit IndexAssigned(_eth, idx);\n        return true;\n    }\n\n    /// @dev Requires that `_eth` address has DOT allocation.\n    modifier has_allocation(address _eth) {\n        uint bal = allocationIndicator.balanceOf(_eth);\n        require(\n            bal > 0,\n            \"Ethereum address has no DOT allocation\"\n        );\n        _;\n    }\n\n    /// @dev Requires that `_eth` address has not claimed.\n    modifier not_claimed(address _eth) {\n        require(\n            claims[_eth].polkadot == bytes32(0),\n            \"Account has already claimed.\"\n        );\n        _;\n    }\n}\n",
  "sourcePath": "/home/volt/workspaces/w3f/polkadot-claims/contracts/Claims.sol",
  "compiler": {
    "name": "solc",
    "version": "0.5.9+commit.e560f70d.Emscripten.clang"
  },
  "schemaVersion": "3.0.9",
  "updatedAt": "2019-07-09T14:31:43.625Z",
  "devdoc": {
    "author": "Web3 Foundation",
    "methods": {
      "amend(address[],address[])": {
        "details": "The given arrays must be same length and index must map directly.",
        "params": {
          "_amends": "An array of the new addresses which can claim those allocations.",
          "_origs": "An array of original (allocation) addresses."
        }
      },
      "assignIndices(address[])": {
        "details": "This function is safe because all the necessary checks are made on `assignNextIndex`.",
        "params": {
          "_eths": "An array of allocation addresses to assign indices for."
        },
        "return": "bool True is successful."
      },
      "claim(address,bytes32)": {
        "details": "Can only be called by the `_eth` address or the amended address for the allocation.",
        "params": {
          "_dot": "The Polkadot public key to claim.",
          "_eth": "The allocation address to claim."
        },
        "return": "True if successful."
      },
      "claimedLength()": {
        "return": "uint The number of accounts that have claimed."
      },
      "hasClaimed(address)": {
        "return": "bool True if claimed."
      },
      "setVesting(address[])": {
        "params": {
          "_eths": "The addresses for which to set vesting."
        }
      }
    },
    "title": "Claims         Allows allocations to be claimed to Polkadot public keys."
  },
  "userdoc": {
    "methods": {
      "amend(address[],address[])": {
        "notice": "Allows owner to manually amend allocations to a new address that can claim."
      },
      "assignIndices(address[])": {
        "notice": "Allows anyone to assign a batch of indices onto unassigned and unclaimed allocations."
      },
      "claim(address,bytes32)": {
        "notice": "Claims an allocation associated with an `_eth` address to a `_dot` public key."
      },
      "claimedLength()": {
        "notice": "Get the length of `claimed`."
      },
      "hasClaimed(address)": {
        "notice": "Get whether an allocation has been claimed."
      },
      "setVesting(address[])": {
        "notice": "Allows owner to manually toggle vesting onto allocations."
      }
    }
  }
}