{
  "contractName": "FrozenToken",
  "abi": [
    {
      "constant": true,
      "inputs": [],
      "name": "name",
      "outputs": [
        {
          "name": "",
          "type": "string"
        }
      ],
      "payable": false,
      "stateMutability": "view",
      "type": "function"
    },
    {
      "constant": false,
      "inputs": [
        {
          "name": "_new",
          "type": "address"
        }
      ],
      "name": "setOwner",
      "outputs": [],
      "payable": false,
      "stateMutability": "nonpayable",
      "type": "function"
    },
    {
      "constant": true,
      "inputs": [],
      "name": "totalSupply",
      "outputs": [
        {
          "name": "",
          "type": "uint256"
        }
      ],
      "payable": false,
      "stateMutability": "view",
      "type": "function"
    },
    {
      "constant": true,
      "inputs": [],
      "name": "decimals",
      "outputs": [
        {
          "name": "",
          "type": "uint8"
        }
      ],
      "payable": false,
      "stateMutability": "view",
      "type": "function"
    },
    {
      "constant": true,
      "inputs": [],
      "name": "owner",
      "outputs": [
        {
          "name": "",
          "type": "address"
        }
      ],
      "payable": false,
      "stateMutability": "view",
      "type": "function"
    },
    {
      "constant": true,
      "inputs": [],
      "name": "symbol",
      "outputs": [
        {
          "name": "",
          "type": "string"
        }
      ],
      "payable": false,
      "stateMutability": "view",
      "type": "function"
    },
    {
      "inputs": [
        {
          "name": "_totalSupply",
          "type": "uint256"
        },
        {
          "name": "_owner",
          "type": "address"
        }
      ],
      "payable": false,
      "stateMutability": "nonpayable",
      "type": "constructor"
    },
    {
      "payable": false,
      "stateMutability": "nonpayable",
      "type": "fallback"
    },
    {
      "anonymous": false,
      "inputs": [
        {
          "indexed": true,
          "name": "from",
          "type": "address"
        },
        {
          "indexed": true,
          "name": "to",
          "type": "address"
        },
        {
          "indexed": false,
          "name": "value",
          "type": "uint256"
        }
      ],
      "name": "Transfer",
      "type": "event"
    },
    {
      "anonymous": false,
      "inputs": [
        {
          "indexed": true,
          "name": "old",
          "type": "address"
        },
        {
          "indexed": true,
          "name": "current",
          "type": "address"
        }
      ],
      "name": "NewOwner",
      "type": "event"
    },
    {
      "constant": true,
      "inputs": [
        {
          "name": "_who",
          "type": "address"
        }
      ],
      "name": "balanceOf",
      "outputs": [
        {
          "name": "",
          "type": "uint256"
        }
      ],
      "payable": false,
      "stateMutability": "view",
      "type": "function"
    },
    {
      "constant": false,
      "inputs": [
        {
          "name": "_to",
          "type": "address"
        }
      ],
      "name": "makeLiquid",
      "outputs": [
        {
          "name": "",
          "type": "bool"
        }
      ],
      "payable": false,
      "stateMutability": "nonpayable",
      "type": "function"
    },
    {
      "constant": false,
      "inputs": [
        {
          "name": "_to",
          "type": "address"
        },
        {
          "name": "_value",
          "type": "uint256"
        }
      ],
      "name": "transfer",
      "outputs": [
        {
          "name": "",
          "type": "bool"
        }
      ],
      "payable": false,
      "stateMutability": "nonpayable",
      "type": "function"
    }
  ],
  "bytecode": "0x608060405234801561001057600080fd5b50604051610a09380380610a098339818101604052604081101561003357600080fd5b810190808051906020019092919080519060200190929190505050816000811161005c57600080fd5b82600181905550816000806101000a81548173ffffffffffffffffffffffffffffffffffffffff021916908373ffffffffffffffffffffffffffffffffffffffff160217905550600154600260008473ffffffffffffffffffffffffffffffffffffffff1673ffffffffffffffffffffffffffffffffffffffff168152602001908152602001600020600001819055506001600260008473ffffffffffffffffffffffffffffffffffffffff1673ffffffffffffffffffffffffffffffffffffffff16815260200190815260200160002060010160006101000a81548160ff0219169083151502179055505050506108b0806101596000396000f3fe608060405234801561001057600080fd5b50600436106100935760003560e01c806370a082311161006657806370a08231146101a657806375ad319a146101fe5780638da5cb5b1461025a57806395d89b41146102a4578063a9059cbb1461032757610093565b806306fdde031461009d57806313af40351461012057806318160ddd14610164578063313ce56714610182575b600061009b57fe5b005b6100a561038d565b6040518080602001828103825283818151815260200191508051906020019080838360005b838110156100e55780820151818401526020810190506100ca565b50505050905090810190601f1680156101125780820380516001836020036101000a031916815260200191505b509250505060405180910390f35b6101626004803603602081101561013657600080fd5b81019080803573ffffffffffffffffffffffffffffffffffffffff1690602001909291905050506103c6565b005b61016c610546565b6040518082815260200191505060405180910390f35b61018a61054c565b604051808260ff1660ff16815260200191505060405180910390f35b6101e8600480360360208110156101bc57600080fd5b81019080803573ffffffffffffffffffffffffffffffffffffffff169060200190929190505050610551565b6040518082815260200191505060405180910390f35b6102406004803603602081101561021457600080fd5b81019080803573ffffffffffffffffffffffffffffffffffffffff16906020019092919050505061059d565b604051808215151515815260200191505060405180910390f35b61026261065e565b604051808273ffffffffffffffffffffffffffffffffffffffff1673ffffffffffffffffffffffffffffffffffffffff16815260200191505060405180910390f35b6102ac610683565b6040518080602001828103825283818151815260200191508051906020019080838360005b838110156102ec5780820151818401526020810190506102d1565b50505050905090810190601f1680156103195780820380516001836020036101000a031916815260200191505b509250505060405180910390f35b6103736004803603604081101561033d57600080fd5b81019080803573ffffffffffffffffffffffffffffffffffffffff169060200190929190803590602001909291905050506106bc565b604051808215151515815260200191505060405180910390f35b6040518060400160405280601881526020017f444f5420416c6c6f636174696f6e20496e64696361746f72000000000000000081525081565b6000809054906101000a900473ffffffffffffffffffffffffffffffffffffffff1673ffffffffffffffffffffffffffffffffffffffff163373ffffffffffffffffffffffffffffffffffffffff1614610488576040517f08c379a000000000000000000000000000000000000000000000000000000000815260040180806020018281038252600a8152602001807f4f6e6c79206f776e65720000000000000000000000000000000000000000000081525060200191505060405180910390fd5b8073ffffffffffffffffffffffffffffffffffffffff166000809054906101000a900473ffffffffffffffffffffffffffffffffffffffff1673ffffffffffffffffffffffffffffffffffffffff167f70aea8d848e8a90fb7661b227dc522eb6395c3dac71b63cb59edd5c9899b236460405160405180910390a3806000806101000a81548173ffffffffffffffffffffffffffffffffffffffff021916908373ffffffffffffffffffffffffffffffffffffffff16021790555050565b60015481565b600381565b6000600260008373ffffffffffffffffffffffffffffffffffffffff1673ffffffffffffffffffffffffffffffffffffffff168152602001908152602001600020600001549050919050565b600033600260008273ffffffffffffffffffffffffffffffffffffffff1673ffffffffffffffffffffffffffffffffffffffff16815260200190815260200160002060010160009054906101000a900460ff166105f957600080fd5b6001600260008573ffffffffffffffffffffffffffffffffffffffff1673ffffffffffffffffffffffffffffffffffffffff16815260200190815260200160002060010160006101000a81548160ff0219169083151502179055506001915050919050565b6000809054906101000a900473ffffffffffffffffffffffffffffffffffffffff1681565b6040518060400160405280600381526020017f444f54000000000000000000000000000000000000000000000000000000000081525081565b6000338280600260008473ffffffffffffffffffffffffffffffffffffffff1673ffffffffffffffffffffffffffffffffffffffff16815260200190815260200160002060000154101561070f57600080fd5b33600260008273ffffffffffffffffffffffffffffffffffffffff1673ffffffffffffffffffffffffffffffffffffffff16815260200190815260200160002060010160009054906101000a900460ff1661076957600080fd5b8573ffffffffffffffffffffffffffffffffffffffff163373ffffffffffffffffffffffffffffffffffffffff167fddf252ad1be2c89b69c2b068fc378daa952ba7f163c4a11628f55a4df523b3ef876040518082815260200191505060405180910390a384600260003373ffffffffffffffffffffffffffffffffffffffff1673ffffffffffffffffffffffffffffffffffffffff1681526020019081526020016000206000016000828254039250508190555084600260008873ffffffffffffffffffffffffffffffffffffffff1673ffffffffffffffffffffffffffffffffffffffff16815260200190815260200160002060000160008282540192505081905550600193505050509291505056fea265627a7a72305820d2a67fa182813021422b3232f908450f21c0564f4654733a8e6121f8d0f8f6ec64736f6c63430005090032",
  "source": "/**\n * Source Code first verified at https://etherscan.io on Wednesday, October 11, 2017\n (UTC) */\n\n//! FrozenToken ECR20-compliant token contract\n//! By Parity Technologies, 2017.\n//! Released under the Apache Licence 2.\n\npragma solidity ^0.5.0;\n\n// Owned contract.\ncontract Owned {\n\tmodifier only_owner { require (msg.sender == owner, \"Only owner\"); _; }\n\n\tevent NewOwner(address indexed old, address indexed current);\n\n\tfunction setOwner(address _new) public only_owner { emit NewOwner(owner, _new); owner = _new; }\n\n\taddress public owner;\n}\n\n// FrozenToken, a bit like an ECR20 token (though not - as it doesn't\n// implement most of the API).\n// All token balances are generally non-transferable.\n// All \"tokens\" belong to the owner (who is uniquely liquid) at construction.\n// Liquid accounts can make other accounts liquid and send their tokens\n// to other axccounts.\ncontract FrozenToken is Owned {\n\tevent Transfer(address indexed from, address indexed to, uint256 value);\n\n\t// this is as basic as can be, only the associated balance & allowances\n\tstruct Account {\n\t\tuint balance;\n\t\tbool liquid;\n\t}\n\n\t// constructor sets the parameters of execution, _totalSupply is all units\n\tconstructor(uint _totalSupply, address _owner)\n        public\n\t\twhen_non_zero(_totalSupply)\n\t{\n\t\ttotalSupply = _totalSupply;\n\t\towner = _owner;\n\t\taccounts[_owner].balance = totalSupply;\n\t\taccounts[_owner].liquid = true;\n\t}\n\n\t// balance of a specific address\n\tfunction balanceOf(address _who) public view returns (uint256) {\n\t\treturn accounts[_who].balance;\n\t}\n\n\t// make an account liquid: only liquid accounts can do this.\n\tfunction makeLiquid(address _to)\n\t\tpublic\n\t\twhen_liquid(msg.sender)\n\t\treturns(bool)\n\t{\n\t\taccounts[_to].liquid = true;\n\t\treturn true;\n\t}\n\n\t// transfer\n\tfunction transfer(address _to, uint256 _value)\n\t\tpublic\n\t\twhen_owns(msg.sender, _value)\n\t\twhen_liquid(msg.sender)\n\t\treturns(bool)\n\t{\n\t\temit Transfer(msg.sender, _to, _value);\n\t\taccounts[msg.sender].balance -= _value;\n\t\taccounts[_to].balance += _value;\n\n\t\treturn true;\n\t}\n\n\t// no default function, simple contract only, entry-level users\n\tfunction() external {\n\t\tassert(false);\n\t}\n\n\t// the balance should be available\n\tmodifier when_owns(address _owner, uint _amount) {\n\t\trequire (accounts[_owner].balance >= _amount);\n\t\t_;\n\t}\n\n\tmodifier when_liquid(address who) {\n\t\trequire (accounts[who].liquid);\n\t\t_;\n\t}\n\n\t// a value should be > 0\n\tmodifier when_non_zero(uint _value) {\n\t\trequire (_value > 0);\n\t\t_;\n\t}\n\n\t// Available token supply\n\tuint public totalSupply;\n\n\t// Storage and mapping of all balances & allowances\n\tmapping (address => Account) accounts;\n\n\t// Conventional metadata.\n\tstring public constant name = \"DOT Allocation Indicator\";\n\tstring public constant symbol = \"DOT\";\n\tuint8 public constant decimals = 3;\n}\n",
  "sourcePath": "/home/volt/workspaces/w3f/polkadot-claims/contracts/FrozenToken.sol",
  "compiler": {
    "name": "solc",
    "version": "0.5.9+commit.e560f70d.Emscripten.clang"
  },
  "schemaVersion": "3.0.9",
  "updatedAt": "2019-07-02T08:17:04.296Z",
  "devdoc": {
    "methods": {}
  },
  "userdoc": {
    "methods": {}
  }
}